{
	"data": {
		"bytecode": {
			"linkReferences": {},
			"object": "608060405234801561001057600080fd5b506102d7806100206000396000f3fe608060405234801561001057600080fd5b506004361061002b5760003560e01c8063adb497c114610030575b600080fd5b61003861003a565b005b7f0738f4da267a110d810e6e89fc59e46be6de0c37b1d5cd559b267dc3688e74e0336040516100699190610159565b60405180910390a17f0738f4da267a110d810e6e89fc59e46be6de0c37b1d5cd559b267dc3688e74e0336040516100a091906101b5565b60405180910390a17f0738f4da267a110d810e6e89fc59e46be6de0c37b1d5cd559b267dc3688e74e0336040516100d79190610187565b60405180910390a1565b6100ea816101f4565b82525050565b60006100fd6016836101e3565b915061010882610226565b602082019050919050565b60006101206016836101e3565b915061012b8261024f565b602082019050919050565b60006101436016836101e3565b915061014e82610278565b602082019050919050565b600060408201905061016e60008301846100e1565b818103602083015261017f816100f0565b905092915050565b600060408201905061019c60008301846100e1565b81810360208301526101ad81610113565b905092915050565b60006040820190506101ca60008301846100e1565b81810360208301526101db81610136565b905092915050565b600082825260208201905092915050565b60006101ff82610206565b9050919050565b600073ffffffffffffffffffffffffffffffffffffffff82169050919050565b7f492073656e64203120657468657220746f20796f752100000000000000000000600082015250565b7f492073656e64203320657468657220746f20796f752100000000000000000000600082015250565b7f492073656e64203220657468657220746f20796f75210000000000000000000060008201525056fea2646970667358221220d2b85f036b962d63f42442befa5a4c44838f8601513f82c74f24a96848b81d6864736f6c63430008040033",
			"opcodes": "PUSH1 0x80 PUSH1 0x40 MSTORE CALLVALUE DUP1 ISZERO PUSH2 0x10 JUMPI PUSH1 0x0 DUP1 REVERT JUMPDEST POP PUSH2 0x2D7 DUP1 PUSH2 0x20 PUSH1 0x0 CODECOPY PUSH1 0x0 RETURN INVALID PUSH1 0x80 PUSH1 0x40 MSTORE CALLVALUE DUP1 ISZERO PUSH2 0x10 JUMPI PUSH1 0x0 DUP1 REVERT JUMPDEST POP PUSH1 0x4 CALLDATASIZE LT PUSH2 0x2B JUMPI PUSH1 0x0 CALLDATALOAD PUSH1 0xE0 SHR DUP1 PUSH4 0xADB497C1 EQ PUSH2 0x30 JUMPI JUMPDEST PUSH1 0x0 DUP1 REVERT JUMPDEST PUSH2 0x38 PUSH2 0x3A JUMP JUMPDEST STOP JUMPDEST PUSH32 0x738F4DA267A110D810E6E89FC59E46BE6DE0C37B1D5CD559B267DC3688E74E0 CALLER PUSH1 0x40 MLOAD PUSH2 0x69 SWAP2 SWAP1 PUSH2 0x159 JUMP JUMPDEST PUSH1 0x40 MLOAD DUP1 SWAP2 SUB SWAP1 LOG1 PUSH32 0x738F4DA267A110D810E6E89FC59E46BE6DE0C37B1D5CD559B267DC3688E74E0 CALLER PUSH1 0x40 MLOAD PUSH2 0xA0 SWAP2 SWAP1 PUSH2 0x1B5 JUMP JUMPDEST PUSH1 0x40 MLOAD DUP1 SWAP2 SUB SWAP1 LOG1 PUSH32 0x738F4DA267A110D810E6E89FC59E46BE6DE0C37B1D5CD559B267DC3688E74E0 CALLER PUSH1 0x40 MLOAD PUSH2 0xD7 SWAP2 SWAP1 PUSH2 0x187 JUMP JUMPDEST PUSH1 0x40 MLOAD DUP1 SWAP2 SUB SWAP1 LOG1 JUMP JUMPDEST PUSH2 0xEA DUP2 PUSH2 0x1F4 JUMP JUMPDEST DUP3 MSTORE POP POP JUMP JUMPDEST PUSH1 0x0 PUSH2 0xFD PUSH1 0x16 DUP4 PUSH2 0x1E3 JUMP JUMPDEST SWAP2 POP PUSH2 0x108 DUP3 PUSH2 0x226 JUMP JUMPDEST PUSH1 0x20 DUP3 ADD SWAP1 POP SWAP2 SWAP1 POP JUMP JUMPDEST PUSH1 0x0 PUSH2 0x120 PUSH1 0x16 DUP4 PUSH2 0x1E3 JUMP JUMPDEST SWAP2 POP PUSH2 0x12B DUP3 PUSH2 0x24F JUMP JUMPDEST PUSH1 0x20 DUP3 ADD SWAP1 POP SWAP2 SWAP1 POP JUMP JUMPDEST PUSH1 0x0 PUSH2 0x143 PUSH1 0x16 DUP4 PUSH2 0x1E3 JUMP JUMPDEST SWAP2 POP PUSH2 0x14E DUP3 PUSH2 0x278 JUMP JUMPDEST PUSH1 0x20 DUP3 ADD SWAP1 POP SWAP2 SWAP1 POP JUMP JUMPDEST PUSH1 0x0 PUSH1 0x40 DUP3 ADD SWAP1 POP PUSH2 0x16E PUSH1 0x0 DUP4 ADD DUP5 PUSH2 0xE1 JUMP JUMPDEST DUP2 DUP2 SUB PUSH1 0x20 DUP4 ADD MSTORE PUSH2 0x17F DUP2 PUSH2 0xF0 JUMP JUMPDEST SWAP1 POP SWAP3 SWAP2 POP POP JUMP JUMPDEST PUSH1 0x0 PUSH1 0x40 DUP3 ADD SWAP1 POP PUSH2 0x19C PUSH1 0x0 DUP4 ADD DUP5 PUSH2 0xE1 JUMP JUMPDEST DUP2 DUP2 SUB PUSH1 0x20 DUP4 ADD MSTORE PUSH2 0x1AD DUP2 PUSH2 0x113 JUMP JUMPDEST SWAP1 POP SWAP3 SWAP2 POP POP JUMP JUMPDEST PUSH1 0x0 PUSH1 0x40 DUP3 ADD SWAP1 POP PUSH2 0x1CA PUSH1 0x0 DUP4 ADD DUP5 PUSH2 0xE1 JUMP JUMPDEST DUP2 DUP2 SUB PUSH1 0x20 DUP4 ADD MSTORE PUSH2 0x1DB DUP2 PUSH2 0x136 JUMP JUMPDEST SWAP1 POP SWAP3 SWAP2 POP POP JUMP JUMPDEST PUSH1 0x0 DUP3 DUP3 MSTORE PUSH1 0x20 DUP3 ADD SWAP1 POP SWAP3 SWAP2 POP POP JUMP JUMPDEST PUSH1 0x0 PUSH2 0x1FF DUP3 PUSH2 0x206 JUMP JUMPDEST SWAP1 POP SWAP2 SWAP1 POP JUMP JUMPDEST PUSH1 0x0 PUSH20 0xFFFFFFFFFFFFFFFFFFFFFFFFFFFFFFFFFFFFFFFF DUP3 AND SWAP1 POP SWAP2 SWAP1 POP JUMP JUMPDEST PUSH32 0x492073656E64203120657468657220746F20796F752100000000000000000000 PUSH1 0x0 DUP3 ADD MSTORE POP JUMP JUMPDEST PUSH32 0x492073656E64203320657468657220746F20796F752100000000000000000000 PUSH1 0x0 DUP3 ADD MSTORE POP JUMP JUMPDEST PUSH32 0x492073656E64203220657468657220746F20796F752100000000000000000000 PUSH1 0x0 DUP3 ADD MSTORE POP JUMP INVALID LOG2 PUSH5 0x6970667358 0x22 SLT KECCAK256 0xD2 0xB8 0x5F SUB PUSH12 0x962D63F42442BEFA5A4C4483 DUP16 DUP7 ADD MLOAD EXTCODEHASH DUP3 0xC7 0x4F 0x24 0xA9 PUSH9 0x48B81D6864736F6C63 NUMBER STOP ADDMOD DIV STOP CALLER "
		},
		"gasEstimates": {
			"creation": {
				"codeDepositCost": "145400",
				"executionCost": "190",
				"totalCost": "145590"
			},
			"external": {
				"trasfer()": "infinite"
			}
		},
		"methodIdentifiers": {
			"trasfer()": "adb497c1"
		}
	},
	"abi": [
		{
			"anonymous": false,
			"inputs": [
				{
					"indexed": false,
					"internalType": "address",
					"name": "sender",
					"type": "address"
				},
				{
					"indexed": false,
					"internalType": "string",
					"name": "message",
					"type": "string"
				}
			],
			"name": "Log",
			"type": "event"
		},
		{
			"inputs": [],
			"name": "trasfer",
			"outputs": [],
			"stateMutability": "nonpayable",
			"type": "function"
		}
	]
}