{
	"data": {
		"bytecode": {
			"linkReferences": {},
			"object": "608060405234801561001057600080fd5b5061024c806100206000396000f3fe6080604052600436106100335760003560e01c80628194391461003857806317c82e651461006857806355574dbe14610072575b600080fd5b34801561004457600080fd5b5061004d61009e565b60405161005f96959493929190610150565b60405180910390f35b6100706100c1565b005b34801561007e57600080fd5b506100876100fc565b6040516100959291906101b1565b60405180910390f35b600080600080600080464144454342955095509550955095509550909192939495565b7ff950957d2407bed19dc99b718b46b4ce6090c05589006dfb86fd22c34865b23e33346040516100f2929190610127565b60405180910390a1565b6000803a45915091509091565b610112816101da565b82525050565b6101218161020c565b82525050565b600060408201905061013c6000830185610109565b6101496020830184610118565b9392505050565b600060c0820190506101656000830189610118565b6101726020830188610109565b61017f6040830187610118565b61018c6060830186610118565b6101996080830185610118565b6101a660a0830184610118565b979650505050505050565b60006040820190506101c66000830185610118565b6101d36020830184610118565b9392505050565b60006101e5826101ec565b9050919050565b600073ffffffffffffffffffffffffffffffffffffffff82169050919050565b600081905091905056fea2646970667358221220a7881e95433278c28bbb08b342238d8574e5b8bc108912760a45802f2156f7b864736f6c63430008040033",
			"opcodes": "PUSH1 0x80 PUSH1 0x40 MSTORE CALLVALUE DUP1 ISZERO PUSH2 0x10 JUMPI PUSH1 0x0 DUP1 REVERT JUMPDEST POP PUSH2 0x24C DUP1 PUSH2 0x20 PUSH1 0x0 CODECOPY PUSH1 0x0 RETURN INVALID PUSH1 0x80 PUSH1 0x40 MSTORE PUSH1 0x4 CALLDATASIZE LT PUSH2 0x33 JUMPI PUSH1 0x0 CALLDATALOAD PUSH1 0xE0 SHR DUP1 PUSH3 0x819439 EQ PUSH2 0x38 JUMPI DUP1 PUSH4 0x17C82E65 EQ PUSH2 0x68 JUMPI DUP1 PUSH4 0x55574DBE EQ PUSH2 0x72 JUMPI JUMPDEST PUSH1 0x0 DUP1 REVERT JUMPDEST CALLVALUE DUP1 ISZERO PUSH2 0x44 JUMPI PUSH1 0x0 DUP1 REVERT JUMPDEST POP PUSH2 0x4D PUSH2 0x9E JUMP JUMPDEST PUSH1 0x40 MLOAD PUSH2 0x5F SWAP7 SWAP6 SWAP5 SWAP4 SWAP3 SWAP2 SWAP1 PUSH2 0x150 JUMP JUMPDEST PUSH1 0x40 MLOAD DUP1 SWAP2 SUB SWAP1 RETURN JUMPDEST PUSH2 0x70 PUSH2 0xC1 JUMP JUMPDEST STOP JUMPDEST CALLVALUE DUP1 ISZERO PUSH2 0x7E JUMPI PUSH1 0x0 DUP1 REVERT JUMPDEST POP PUSH2 0x87 PUSH2 0xFC JUMP JUMPDEST PUSH1 0x40 MLOAD PUSH2 0x95 SWAP3 SWAP2 SWAP1 PUSH2 0x1B1 JUMP JUMPDEST PUSH1 0x40 MLOAD DUP1 SWAP2 SUB SWAP1 RETURN JUMPDEST PUSH1 0x0 DUP1 PUSH1 0x0 DUP1 PUSH1 0x0 DUP1 CHAINID COINBASE DIFFICULTY GASLIMIT NUMBER TIMESTAMP SWAP6 POP SWAP6 POP SWAP6 POP SWAP6 POP SWAP6 POP SWAP6 POP SWAP1 SWAP2 SWAP3 SWAP4 SWAP5 SWAP6 JUMP JUMPDEST PUSH32 0xF950957D2407BED19DC99B718B46B4CE6090C05589006DFB86FD22C34865B23E CALLER CALLVALUE PUSH1 0x40 MLOAD PUSH2 0xF2 SWAP3 SWAP2 SWAP1 PUSH2 0x127 JUMP JUMPDEST PUSH1 0x40 MLOAD DUP1 SWAP2 SUB SWAP1 LOG1 JUMP JUMPDEST PUSH1 0x0 DUP1 GASPRICE GASLIMIT SWAP2 POP SWAP2 POP SWAP1 SWAP2 JUMP JUMPDEST PUSH2 0x112 DUP2 PUSH2 0x1DA JUMP JUMPDEST DUP3 MSTORE POP POP JUMP JUMPDEST PUSH2 0x121 DUP2 PUSH2 0x20C JUMP JUMPDEST DUP3 MSTORE POP POP JUMP JUMPDEST PUSH1 0x0 PUSH1 0x40 DUP3 ADD SWAP1 POP PUSH2 0x13C PUSH1 0x0 DUP4 ADD DUP6 PUSH2 0x109 JUMP JUMPDEST PUSH2 0x149 PUSH1 0x20 DUP4 ADD DUP5 PUSH2 0x118 JUMP JUMPDEST SWAP4 SWAP3 POP POP POP JUMP JUMPDEST PUSH1 0x0 PUSH1 0xC0 DUP3 ADD SWAP1 POP PUSH2 0x165 PUSH1 0x0 DUP4 ADD DUP10 PUSH2 0x118 JUMP JUMPDEST PUSH2 0x172 PUSH1 0x20 DUP4 ADD DUP9 PUSH2 0x109 JUMP JUMPDEST PUSH2 0x17F PUSH1 0x40 DUP4 ADD DUP8 PUSH2 0x118 JUMP JUMPDEST PUSH2 0x18C PUSH1 0x60 DUP4 ADD DUP7 PUSH2 0x118 JUMP JUMPDEST PUSH2 0x199 PUSH1 0x80 DUP4 ADD DUP6 PUSH2 0x118 JUMP JUMPDEST PUSH2 0x1A6 PUSH1 0xA0 DUP4 ADD DUP5 PUSH2 0x118 JUMP JUMPDEST SWAP8 SWAP7 POP POP POP POP POP POP POP JUMP JUMPDEST PUSH1 0x0 PUSH1 0x40 DUP3 ADD SWAP1 POP PUSH2 0x1C6 PUSH1 0x0 DUP4 ADD DUP6 PUSH2 0x118 JUMP JUMPDEST PUSH2 0x1D3 PUSH1 0x20 DUP4 ADD DUP5 PUSH2 0x118 JUMP JUMPDEST SWAP4 SWAP3 POP POP POP JUMP JUMPDEST PUSH1 0x0 PUSH2 0x1E5 DUP3 PUSH2 0x1EC JUMP JUMPDEST SWAP1 POP SWAP2 SWAP1 POP JUMP JUMPDEST PUSH1 0x0 PUSH20 0xFFFFFFFFFFFFFFFFFFFFFFFFFFFFFFFFFFFFFFFF DUP3 AND SWAP1 POP SWAP2 SWAP1 POP JUMP JUMPDEST PUSH1 0x0 DUP2 SWAP1 POP SWAP2 SWAP1 POP JUMP INVALID LOG2 PUSH5 0x6970667358 0x22 SLT KECCAK256 0xA7 DUP9 0x1E SWAP6 NUMBER ORIGIN PUSH25 0xC28BBB08B342238D8574E5B8BC108912760A45802F2156F7B8 PUSH5 0x736F6C6343 STOP ADDMOD DIV STOP CALLER "
		},
		"gasEstimates": {
			"creation": {
				"codeDepositCost": "117600",
				"executionCost": "165",
				"totalCost": "117765"
			},
			"external": {
				"getBlockInfo()": "infinite",
				"getGasInfo()": "infinite",
				"getMessageInfo()": "1717"
			}
		},
		"methodIdentifiers": {
			"getBlockInfo()": "00819439",
			"getGasInfo()": "55574dbe",
			"getMessageInfo()": "17c82e65"
		}
	},
	"abi": [
		{
			"anonymous": false,
			"inputs": [
				{
					"indexed": false,
					"internalType": "address",
					"name": "sender",
					"type": "address"
				},
				{
					"indexed": false,
					"internalType": "uint256",
					"name": "value",
					"type": "uint256"
				}
			],
			"name": "Log",
			"type": "event"
		},
		{
			"inputs": [],
			"name": "getBlockInfo",
			"outputs": [
				{
					"internalType": "uint256",
					"name": "",
					"type": "uint256"
				},
				{
					"internalType": "address",
					"name": "",
					"type": "address"
				},
				{
					"internalType": "uint256",
					"name": "",
					"type": "uint256"
				},
				{
					"internalType": "uint256",
					"name": "",
					"type": "uint256"
				},
				{
					"internalType": "uint256",
					"name": "",
					"type": "uint256"
				},
				{
					"internalType": "uint256",
					"name": "",
					"type": "uint256"
				}
			],
			"stateMutability": "view",
			"type": "function"
		},
		{
			"inputs": [],
			"name": "getGasInfo",
			"outputs": [
				{
					"internalType": "uint256",
					"name": "",
					"type": "uint256"
				},
				{
					"internalType": "uint256",
					"name": "",
					"type": "uint256"
				}
			],
			"stateMutability": "view",
			"type": "function"
		},
		{
			"inputs": [],
			"name": "getMessageInfo",
			"outputs": [],
			"stateMutability": "payable",
			"type": "function"
		}
	]
}